{
  "address": "0x869892be8E583dD695498940E2aA5621666C9C7D",
  "abi": [
    {
      "inputs": [],
      "stateMutability": "nonpayable",
      "type": "constructor"
    },
    {
      "anonymous": false,
      "inputs": [
        {
          "indexed": false,
          "internalType": "address",
          "name": "previousAdmin",
          "type": "address"
        },
        {
          "indexed": false,
          "internalType": "address",
          "name": "newAdmin",
          "type": "address"
        }
      ],
      "name": "AdminChanged",
      "type": "event"
    },
    {
      "anonymous": false,
      "inputs": [
        {
          "indexed": true,
          "internalType": "address",
          "name": "owner",
          "type": "address"
        },
        {
          "indexed": true,
          "internalType": "address",
          "name": "approved",
          "type": "address"
        },
        {
          "indexed": true,
          "internalType": "uint256",
          "name": "tokenId",
          "type": "uint256"
        }
      ],
      "name": "Approval",
      "type": "event"
    },
    {
      "anonymous": false,
      "inputs": [
        {
          "indexed": true,
          "internalType": "address",
          "name": "owner",
          "type": "address"
        },
        {
          "indexed": true,
          "internalType": "address",
          "name": "operator",
          "type": "address"
        },
        {
          "indexed": false,
          "internalType": "bool",
          "name": "approved",
          "type": "bool"
        }
      ],
      "name": "ApprovalForAll",
      "type": "event"
    },
    {
      "anonymous": false,
      "inputs": [
        {
          "indexed": false,
          "internalType": "uint256",
          "name": "_fromTokenId",
          "type": "uint256"
        },
        {
          "indexed": false,
          "internalType": "uint256",
          "name": "_toTokenId",
          "type": "uint256"
        }
      ],
      "name": "BatchMetadataUpdate",
      "type": "event"
    },
    {
      "anonymous": false,
      "inputs": [
        {
          "indexed": true,
          "internalType": "address",
          "name": "beacon",
          "type": "address"
        }
      ],
      "name": "BeaconUpgraded",
      "type": "event"
    },
    {
      "anonymous": false,
      "inputs": [
        {
          "indexed": false,
          "internalType": "uint8",
          "name": "version",
          "type": "uint8"
        }
      ],
      "name": "Initialized",
      "type": "event"
    },
    {
      "anonymous": false,
      "inputs": [
        {
          "indexed": false,
          "internalType": "uint256",
          "name": "_tokenId",
          "type": "uint256"
        }
      ],
      "name": "MetadataUpdate",
      "type": "event"
    },
    {
      "anonymous": false,
      "inputs": [
        {
          "indexed": false,
          "internalType": "uint256",
          "name": "newFee",
          "type": "uint256"
        }
      ],
      "name": "MintFeeUpdated",
      "type": "event"
    },
    {
      "anonymous": false,
      "inputs": [
        {
          "indexed": true,
          "internalType": "address",
          "name": "to",
          "type": "address"
        },
        {
          "indexed": true,
          "internalType": "uint256",
          "name": "tokenId",
          "type": "uint256"
        },
        {
          "indexed": false,
          "internalType": "string",
          "name": "uri",
          "type": "string"
        }
      ],
      "name": "NFTMinted",
      "type": "event"
    },
    {
      "anonymous": false,
      "inputs": [
        {
          "indexed": true,
          "internalType": "address",
          "name": "previousOwner",
          "type": "address"
        },
        {
          "indexed": true,
          "internalType": "address",
          "name": "newOwner",
          "type": "address"
        }
      ],
      "name": "OwnershipTransferred",
      "type": "event"
    },
    {
      "anonymous": false,
      "inputs": [
        {
          "indexed": true,
          "internalType": "address",
          "name": "from",
          "type": "address"
        },
        {
          "indexed": true,
          "internalType": "address",
          "name": "to",
          "type": "address"
        },
        {
          "indexed": true,
          "internalType": "uint256",
          "name": "tokenId",
          "type": "uint256"
        }
      ],
      "name": "Transfer",
      "type": "event"
    },
    {
      "anonymous": false,
      "inputs": [
        {
          "indexed": false,
          "internalType": "address",
          "name": "newTreasury",
          "type": "address"
        }
      ],
      "name": "TreasuryAddressUpdated",
      "type": "event"
    },
    {
      "anonymous": false,
      "inputs": [
        {
          "indexed": true,
          "internalType": "address",
          "name": "implementation",
          "type": "address"
        }
      ],
      "name": "Upgraded",
      "type": "event"
    },
    {
      "inputs": [
        {
          "internalType": "address",
          "name": "to",
          "type": "address"
        },
        {
          "internalType": "uint256",
          "name": "tokenId",
          "type": "uint256"
        }
      ],
      "name": "approve",
      "outputs": [],
      "stateMutability": "nonpayable",
      "type": "function"
    },
    {
      "inputs": [
        {
          "internalType": "address",
          "name": "owner",
          "type": "address"
        }
      ],
      "name": "balanceOf",
      "outputs": [
        {
          "internalType": "uint256",
          "name": "",
          "type": "uint256"
        }
      ],
      "stateMutability": "view",
      "type": "function"
    },
    {
      "inputs": [
        {
          "internalType": "uint256",
          "name": "tokenId",
          "type": "uint256"
        }
      ],
      "name": "getApproved",
      "outputs": [
        {
          "internalType": "address",
          "name": "",
          "type": "address"
        }
      ],
      "stateMutability": "view",
      "type": "function"
    },
    {
      "inputs": [
        {
          "internalType": "string",
          "name": "name",
          "type": "string"
        },
        {
          "internalType": "string",
          "name": "symbol",
          "type": "string"
        },
        {
          "internalType": "uint256",
          "name": "initialMintFee",
          "type": "uint256"
        },
        {
          "internalType": "address",
          "name": "initialOwner",
          "type": "address"
        },
        {
          "internalType": "address payable",
          "name": "initialTreasury",
          "type": "address"
        }
      ],
      "name": "initialize",
      "outputs": [],
      "stateMutability": "nonpayable",
      "type": "function"
    },
    {
      "inputs": [
        {
          "internalType": "address",
          "name": "owner",
          "type": "address"
        },
        {
          "internalType": "address",
          "name": "operator",
          "type": "address"
        }
      ],
      "name": "isApprovedForAll",
      "outputs": [
        {
          "internalType": "bool",
          "name": "",
          "type": "bool"
        }
      ],
      "stateMutability": "view",
      "type": "function"
    },
    {
      "inputs": [
        {
          "internalType": "address",
          "name": "to",
          "type": "address"
        },
        {
          "internalType": "string",
          "name": "metadataURI",
          "type": "string"
        }
      ],
      "name": "mint",
      "outputs": [
        {
          "internalType": "uint256",
          "name": "",
          "type": "uint256"
        }
      ],
      "stateMutability": "payable",
      "type": "function"
    },
    {
      "inputs": [],
      "name": "mintFee",
      "outputs": [
        {
          "internalType": "uint256",
          "name": "",
          "type": "uint256"
        }
      ],
      "stateMutability": "view",
      "type": "function"
    },
    {
      "inputs": [],
      "name": "name",
      "outputs": [
        {
          "internalType": "string",
          "name": "",
          "type": "string"
        }
      ],
      "stateMutability": "view",
      "type": "function"
    },
    {
      "inputs": [],
      "name": "nextTokenId",
      "outputs": [
        {
          "internalType": "uint256",
          "name": "",
          "type": "uint256"
        }
      ],
      "stateMutability": "view",
      "type": "function"
    },
    {
      "inputs": [],
      "name": "owner",
      "outputs": [
        {
          "internalType": "address",
          "name": "",
          "type": "address"
        }
      ],
      "stateMutability": "view",
      "type": "function"
    },
    {
      "inputs": [
        {
          "internalType": "uint256",
          "name": "tokenId",
          "type": "uint256"
        }
      ],
      "name": "ownerOf",
      "outputs": [
        {
          "internalType": "address",
          "name": "",
          "type": "address"
        }
      ],
      "stateMutability": "view",
      "type": "function"
    },
    {
      "inputs": [],
      "name": "proxiableUUID",
      "outputs": [
        {
          "internalType": "bytes32",
          "name": "",
          "type": "bytes32"
        }
      ],
      "stateMutability": "view",
      "type": "function"
    },
    {
      "inputs": [],
      "name": "renounceOwnership",
      "outputs": [],
      "stateMutability": "nonpayable",
      "type": "function"
    },
    {
      "inputs": [
        {
          "internalType": "uint256",
          "name": "tokenId",
          "type": "uint256"
        },
        {
          "internalType": "uint256",
          "name": "salePrice",
          "type": "uint256"
        }
      ],
      "name": "royaltyInfo",
      "outputs": [
        {
          "internalType": "address",
          "name": "",
          "type": "address"
        },
        {
          "internalType": "uint256",
          "name": "",
          "type": "uint256"
        }
      ],
      "stateMutability": "view",
      "type": "function"
    },
    {
      "inputs": [
        {
          "internalType": "address",
          "name": "from",
          "type": "address"
        },
        {
          "internalType": "address",
          "name": "to",
          "type": "address"
        },
        {
          "internalType": "uint256",
          "name": "tokenId",
          "type": "uint256"
        }
      ],
      "name": "safeTransferFrom",
      "outputs": [],
      "stateMutability": "nonpayable",
      "type": "function"
    },
    {
      "inputs": [
        {
          "internalType": "address",
          "name": "from",
          "type": "address"
        },
        {
          "internalType": "address",
          "name": "to",
          "type": "address"
        },
        {
          "internalType": "uint256",
          "name": "tokenId",
          "type": "uint256"
        },
        {
          "internalType": "bytes",
          "name": "data",
          "type": "bytes"
        }
      ],
      "name": "safeTransferFrom",
      "outputs": [],
      "stateMutability": "nonpayable",
      "type": "function"
    },
    {
      "inputs": [
        {
          "internalType": "address",
          "name": "operator",
          "type": "address"
        },
        {
          "internalType": "bool",
          "name": "approved",
          "type": "bool"
        }
      ],
      "name": "setApprovalForAll",
      "outputs": [],
      "stateMutability": "nonpayable",
      "type": "function"
    },
    {
      "inputs": [
        {
          "internalType": "uint256",
          "name": "newFee",
          "type": "uint256"
        }
      ],
      "name": "setMintFee",
      "outputs": [],
      "stateMutability": "nonpayable",
      "type": "function"
    },
    {
      "inputs": [
        {
          "internalType": "address payable",
          "name": "newTreasury",
          "type": "address"
        }
      ],
      "name": "setTreasuryAddress",
      "outputs": [],
      "stateMutability": "nonpayable",
      "type": "function"
    },
    {
      "inputs": [
        {
          "internalType": "bytes4",
          "name": "interfaceId",
          "type": "bytes4"
        }
      ],
      "name": "supportsInterface",
      "outputs": [
        {
          "internalType": "bool",
          "name": "",
          "type": "bool"
        }
      ],
      "stateMutability": "view",
      "type": "function"
    },
    {
      "inputs": [],
      "name": "symbol",
      "outputs": [
        {
          "internalType": "string",
          "name": "",
          "type": "string"
        }
      ],
      "stateMutability": "view",
      "type": "function"
    },
    {
      "inputs": [
        {
          "internalType": "uint256",
          "name": "tokenId",
          "type": "uint256"
        }
      ],
      "name": "tokenURI",
      "outputs": [
        {
          "internalType": "string",
          "name": "",
          "type": "string"
        }
      ],
      "stateMutability": "view",
      "type": "function"
    },
    {
      "inputs": [
        {
          "internalType": "address",
          "name": "from",
          "type": "address"
        },
        {
          "internalType": "address",
          "name": "to",
          "type": "address"
        },
        {
          "internalType": "uint256",
          "name": "tokenId",
          "type": "uint256"
        }
      ],
      "name": "transferFrom",
      "outputs": [],
      "stateMutability": "nonpayable",
      "type": "function"
    },
    {
      "inputs": [
        {
          "internalType": "address",
          "name": "newOwner",
          "type": "address"
        }
      ],
      "name": "transferOwnership",
      "outputs": [],
      "stateMutability": "nonpayable",
      "type": "function"
    },
    {
      "inputs": [],
      "name": "treasuryAddress",
      "outputs": [
        {
          "internalType": "address payable",
          "name": "",
          "type": "address"
        }
      ],
      "stateMutability": "view",
      "type": "function"
    },
    {
      "inputs": [
        {
          "internalType": "address",
          "name": "newImplementation",
          "type": "address"
        }
      ],
      "name": "upgradeTo",
      "outputs": [],
      "stateMutability": "nonpayable",
      "type": "function"
    },
    {
      "inputs": [
        {
          "internalType": "address",
          "name": "newImplementation",
          "type": "address"
        },
        {
          "internalType": "bytes",
          "name": "data",
          "type": "bytes"
        }
      ],
      "name": "upgradeToAndCall",
      "outputs": [],
      "stateMutability": "payable",
      "type": "function"
    },
    {
      "inputs": [],
      "name": "withdrawFees",
      "outputs": [],
      "stateMutability": "nonpayable",
      "type": "function"
    }
  ],
  "transactionHash": "0x4a196343f5fc3e2363a4641130902bde7abcb8f71d38acbe285d6d2ea3bcb2e1",
  "args": [],
  "numDeployments": 1,
  "solcInputHash": "9a299d5535e2d996574fac801d8c4d07",
  "bytecode": "0x60a0604052306080523480156200001557600080fd5b506200002062000026565b620000e7565b600054610100900460ff1615620000935760405162461bcd60e51b815260206004820152602760248201527f496e697469616c697a61626c653a20636f6e747261637420697320696e697469604482015266616c697a696e6760c81b606482015260840160405180910390fd5b60005460ff90811614620000e5576000805460ff191660ff9081179091556040519081527f7f26b83ff96e1f2b6a682f133852f6798a09c465da95921460cefb38474024989060200160405180910390a15b565b608051612b2a6200011f600039600081816108340152818161087401528181610938015281816109780152610a0b0152612b2a6000f3fe6080604052600436106101b75760003560e01c806370a08231116100ec578063b88d4fde1161008a578063d0def52111610064578063d0def521146104cd578063e985e9c5146104e0578063eddd0d9c14610529578063f2fde38b1461054957600080fd5b8063b88d4fde1461046c578063c5f956af1461048c578063c87b56dd146104ad57600080fd5b80637e77c503116100c65780637e77c503146103f95780638da5cb5b1461041957806395d89b4114610437578063a22cb4651461044c57600080fd5b806370a08231146103ae578063715018a6146103ce57806375794a3c146103e357600080fd5b80633659cfe6116101595780634f1ef286116101335780634f1ef2861461034657806352d1902d146103595780636352211e1461036e5780636605bfda1461038e57600080fd5b80633659cfe6146102f157806342842e0e14610311578063476343ee1461033157600080fd5b8063095ea7b311610195578063095ea7b31461024b57806313966db51461026d57806323b872dd146102925780632a55205a146102b257600080fd5b806301ffc9a7146101bc57806306fdde03146101f1578063081812fc14610213575b600080fd5b3480156101c857600080fd5b506101dc6101d73660046122d0565b610569565b60405190151581526020015b60405180910390f35b3480156101fd57600080fd5b5061020661057a565b6040516101e8919061233d565b34801561021f57600080fd5b5061023361022e366004612350565b61060c565b6040516001600160a01b0390911681526020016101e8565b34801561025757600080fd5b5061026b61026636600461237e565b610633565b005b34801561027957600080fd5b506102846101925481565b6040519081526020016101e8565b34801561029e57600080fd5b5061026b6102ad3660046123aa565b61074d565b3480156102be57600080fd5b506102d26102cd3660046123eb565b61077e565b604080516001600160a01b0390931683526020830191909152016101e8565b3480156102fd57600080fd5b5061026b61030c36600461240d565b61082a565b34801561031d57600080fd5b5061026b61032c3660046123aa565b610909565b34801561033d57600080fd5b5061026b610924565b61026b6103543660046124cd565b61092e565b34801561036557600080fd5b506102846109fe565b34801561037a57600080fd5b50610233610389366004612350565b610ab1565b34801561039a57600080fd5b5061026b6103a936600461240d565b610b11565b3480156103ba57600080fd5b506102846103c936600461240d565b610bc5565b3480156103da57600080fd5b5061026b610c4b565b3480156103ef57600080fd5b5061019154610284565b34801561040557600080fd5b5061026b61041436600461251d565b610c5d565b34801561042557600080fd5b5060fb546001600160a01b0316610233565b34801561044357600080fd5b50610206610dd1565b34801561045857600080fd5b5061026b6104673660046125b2565b610de0565b34801561047857600080fd5b5061026b6104873660046125f0565b610deb565b34801561049857600080fd5b5061019354610233906001600160a01b031681565b3480156104b957600080fd5b506102066104c8366004612350565b610e23565b6102846104db3660046124cd565b610e93565b3480156104ec57600080fd5b506101dc6104fb36600461265c565b6001600160a01b039182166000908152606a6020908152604080832093909416825291909152205460ff1690565b34801561053557600080fd5b5061026b610544366004612350565b610fbb565b34801561055557600080fd5b5061026b61056436600461240d565b610ff9565b60006105748261106f565b92915050565b6060606580546105899061268a565b80601f01602080910402602001604051908101604052809291908181526020018280546105b59061268a565b80156106025780601f106105d757610100808354040283529160200191610602565b820191906000526020600020905b8154815290600101906020018083116105e557829003601f168201915b5050505050905090565b600061061782611094565b506000908152606960205260409020546001600160a01b031690565b600061063e82610ab1565b9050806001600160a01b0316836001600160a01b0316036106b05760405162461bcd60e51b815260206004820152602160248201527f4552433732313a20617070726f76616c20746f2063757272656e74206f776e656044820152603960f91b60648201526084015b60405180910390fd5b336001600160a01b03821614806106cc57506106cc81336104fb565b61073e5760405162461bcd60e51b815260206004820152603d60248201527f4552433732313a20617070726f76652063616c6c6572206973206e6f7420746f60448201527f6b656e206f776e6572206f7220617070726f76656420666f7220616c6c00000060648201526084016106a7565b61074883836110f3565b505050565b6107573382611161565b6107735760405162461bcd60e51b81526004016106a7906126c4565b6107488383836111e0565b600082815260ca602090815260408083208151808301909252546001600160a01b038116808352600160a01b9091046001600160601b03169282019290925282916107f357506040805180820190915260c9546001600160a01b0381168252600160a01b90046001600160601b031660208201525b602081015160009061271090610812906001600160601b031687612727565b61081c919061273e565b915196919550909350505050565b6001600160a01b037f00000000000000000000000000000000000000000000000000000000000000001630036108725760405162461bcd60e51b81526004016106a790612760565b7f00000000000000000000000000000000000000000000000000000000000000006001600160a01b03166108bb600080516020612aae833981519152546001600160a01b031690565b6001600160a01b0316146108e15760405162461bcd60e51b81526004016106a7906127ac565b6108ea81611344565b604080516000808252602082019092526109069183919061134c565b50565b61074883838360405180602001604052806000815250610deb565b61092c6114b7565b565b6001600160a01b037f00000000000000000000000000000000000000000000000000000000000000001630036109765760405162461bcd60e51b81526004016106a790612760565b7f00000000000000000000000000000000000000000000000000000000000000006001600160a01b03166109bf600080516020612aae833981519152546001600160a01b031690565b6001600160a01b0316146109e55760405162461bcd60e51b81526004016106a7906127ac565b6109ee82611344565b6109fa8282600161134c565b5050565b6000306001600160a01b037f00000000000000000000000000000000000000000000000000000000000000001614610a9e5760405162461bcd60e51b815260206004820152603860248201527f555550535570677261646561626c653a206d757374206e6f742062652063616c60448201527f6c6564207468726f7567682064656c656761746563616c6c000000000000000060648201526084016106a7565b50600080516020612aae83398151915290565b6000818152606760205260408120546001600160a01b0316806105745760405162461bcd60e51b8152602060048201526018602482015277115490cdcc8c4e881a5b9d985b1a59081d1bdad95b88125160421b60448201526064016106a7565b610b196115dd565b6001600160a01b038116610b6f5760405162461bcd60e51b815260206004820152601860248201527f496e76616c69642074726561737572792061646472657373000000000000000060448201526064016106a7565b61019380546001600160a01b0319166001600160a01b0383169081179091556040519081527fb6a5e89655cf506139085f051af608195ed056f8dc550b180a1c38d401e2b6c4906020015b60405180910390a150565b60006001600160a01b038216610c2f5760405162461bcd60e51b815260206004820152602960248201527f4552433732313a2061646472657373207a65726f206973206e6f7420612076616044820152683634b21037bbb732b960b91b60648201526084016106a7565b506001600160a01b031660009081526068602052604090205490565b610c536115dd565b61092c6000611637565b600054610100900460ff1615808015610c7d5750600054600160ff909116105b80610c975750303b158015610c97575060005460ff166001145b610cfa5760405162461bcd60e51b815260206004820152602e60248201527f496e697469616c697a61626c653a20636f6e747261637420697320616c72656160448201526d191e481a5b9a5d1a585b1a5e995960921b60648201526084016106a7565b6000805460ff191660011790558015610d1d576000805461ff0019166101001790555b610d278686611689565b610d2f6116ba565b610d376116ba565b610d3f6116e1565b610d476116ba565b61019284905560016101915561019380546001600160a01b0319166001600160a01b038416179055610d7a8360fa611710565b610d8383610ff9565b8015610dc9576000805461ff0019169055604051600181527f7f26b83ff96e1f2b6a682f133852f6798a09c465da95921460cefb38474024989060200160405180910390a15b505050505050565b6060606680546105899061268a565b6109fa33838361180d565b610df53383611161565b610e115760405162461bcd60e51b81526004016106a7906126c4565b610e1d848484846118db565b50505050565b6000818152606760205260409020546060906001600160a01b0316610e8a5760405162461bcd60e51b815260206004820152601f60248201527f55524920717565727920666f72206e6f6e6578697374656e7420746f6b656e0060448201526064016106a7565b6105748261190e565b600061019254341015610edf5760405162461bcd60e51b8152602060048201526014602482015273125b9cdd59999a58da595b9d081c185e5b595b9d60621b60448201526064016106a7565b6000825111610f305760405162461bcd60e51b815260206004820152601c60248201527f4d65746164617461205552492063616e6e6f7420626520656d7074790000000060448201526064016106a7565b610191805460009182610f42836127f8565b919050559050610f528482611a16565b610f5c8184611a30565b662386f26fc100004710610f7257610f726114b7565b80846001600160a01b03167fd35bb95e09c04b219e35047ce7b7b300e3384264ef84a40456943dbc0fc17c1485604051610fac919061233d565b60405180910390a39392505050565b610fc36115dd565b6101928190556040518181527f38fbb1c8b109c430f0c030e7ed076cf5611a307773a4e8e365601e8f8bceaec690602001610bba565b6110016115dd565b6001600160a01b0381166110665760405162461bcd60e51b815260206004820152602660248201527f4f776e61626c653a206e6577206f776e657220697320746865207a65726f206160448201526564647265737360d01b60648201526084016106a7565b61090681611637565b60006001600160e01b0319821663152a902d60e11b1480610574575061057482611afb565b6000818152606760205260409020546001600160a01b03166109065760405162461bcd60e51b8152602060048201526018602482015277115490cdcc8c4e881a5b9d985b1a59081d1bdad95b88125160421b60448201526064016106a7565b600081815260696020526040902080546001600160a01b0319166001600160a01b038416908117909155819061112882610ab1565b6001600160a01b03167f8c5be1e5ebec7d5bd14f71427d1e84f3dd0314c0f7b2291e5b200ac8c7c3b92560405160405180910390a45050565b60008061116d83610ab1565b9050806001600160a01b0316846001600160a01b031614806111b457506001600160a01b038082166000908152606a602090815260408083209388168352929052205460ff165b806111d85750836001600160a01b03166111cd8461060c565b6001600160a01b0316145b949350505050565b826001600160a01b03166111f382610ab1565b6001600160a01b0316146112195760405162461bcd60e51b81526004016106a790612811565b6001600160a01b03821661127b5760405162461bcd60e51b8152602060048201526024808201527f4552433732313a207472616e7366657220746f20746865207a65726f206164646044820152637265737360e01b60648201526084016106a7565b826001600160a01b031661128e82610ab1565b6001600160a01b0316146112b45760405162461bcd60e51b81526004016106a790612811565b600081815260696020908152604080832080546001600160a01b03199081169091556001600160a01b0387811680865260688552838620805460001901905590871680865283862080546001019055868652606790945282852080549092168417909155905184937fddf252ad1be2c89b69c2b068fc378daa952ba7f163c4a11628f55a4df523b3ef91a4505050565b6109066115dd565b7f4910fdfa16fed3260ed0e7147f7cc6da11a60208b5b9406d12a635614ffd91435460ff161561137f5761074883611b20565b826001600160a01b03166352d1902d6040518163ffffffff1660e01b8152600401602060405180830381865afa9250505080156113d9575060408051601f3d908101601f191682019092526113d691810190612856565b60015b61143c5760405162461bcd60e51b815260206004820152602e60248201527f45524331393637557067726164653a206e657720696d706c656d656e7461746960448201526d6f6e206973206e6f74205555505360901b60648201526084016106a7565b600080516020612aae83398151915281146114ab5760405162461bcd60e51b815260206004820152602960248201527f45524331393637557067726164653a20756e737570706f727465642070726f786044820152681a58589b195555525160ba1b60648201526084016106a7565b50610748838383611bbc565b47806114fb5760405162461bcd60e51b81526020600482015260136024820152724e6f206665657320746f20776974686472617760681b60448201526064016106a7565b610193546001600160a01b03166115475760405162461bcd60e51b815260206004820152601060248201526f151c99585cdd5c9e481b9bdd081cd95d60821b60448201526064016106a7565b610193546040516000916001600160a01b03169083908381818185875af1925050503d8060008114611595576040519150601f19603f3d011682016040523d82523d6000602084013e61159a565b606091505b50509050806109fa5760405162461bcd60e51b815260206004820152600f60248201526e151c985b9cd9995c8819985a5b1959608a1b60448201526064016106a7565b60fb546001600160a01b0316331461092c5760405162461bcd60e51b815260206004820181905260248201527f4f776e61626c653a2063616c6c6572206973206e6f7420746865206f776e657260448201526064016106a7565b60fb80546001600160a01b038381166001600160a01b0319831681179093556040519116919082907f8be0079c531659141344cd1fd0a4f28419497f9722a3daafe3b4186f6b6457e090600090a35050565b600054610100900460ff166116b05760405162461bcd60e51b81526004016106a79061286f565b6109fa8282611be1565b600054610100900460ff1661092c5760405162461bcd60e51b81526004016106a79061286f565b600054610100900460ff166117085760405162461bcd60e51b81526004016106a79061286f565b61092c611c21565b6127106001600160601b038216111561177e5760405162461bcd60e51b815260206004820152602a60248201527f455243323938313a20726f79616c7479206665652077696c6c206578636565646044820152692073616c65507269636560b01b60648201526084016106a7565b6001600160a01b0382166117d45760405162461bcd60e51b815260206004820152601960248201527f455243323938313a20696e76616c69642072656365697665720000000000000060448201526064016106a7565b604080518082019091526001600160a01b039092168083526001600160601b039091166020909201829052600160a01b9091021760c955565b816001600160a01b0316836001600160a01b03160361186e5760405162461bcd60e51b815260206004820152601960248201527f4552433732313a20617070726f766520746f2063616c6c65720000000000000060448201526064016106a7565b6001600160a01b038381166000818152606a6020908152604080832094871680845294825291829020805460ff191686151590811790915591519182527f17307eab39ab6107e8899845ad3d59bd9653f200f220920489ca2b5937696c31910160405180910390a3505050565b6118e68484846111e0565b6118f284848484611c51565b610e1d5760405162461bcd60e51b81526004016106a7906128ba565b606061191982611094565b600082815260976020526040812080546119329061268a565b80601f016020809104026020016040519081016040528092919081815260200182805461195e9061268a565b80156119ab5780601f10611980576101008083540402835291602001916119ab565b820191906000526020600020905b81548152906001019060200180831161198e57829003601f168201915b5050505050905060006119c960408051602081019091526000815290565b905080516000036119db575092915050565b815115611a0d5780826040516020016119f592919061290c565b60405160208183030381529060405292505050919050565b6111d884611d52565b6109fa828260405180602001604052806000815250611dc6565b6000828152606760205260409020546001600160a01b0316611aab5760405162461bcd60e51b815260206004820152602e60248201527f45524337323155524953746f726167653a2055524920736574206f66206e6f6e60448201526d32bc34b9ba32b73a103a37b5b2b760911b60648201526084016106a7565b6000828152609760205260409020611ac38282612981565b506040518281527ff8e1a15aba9398e019f0b49df1a4fde98ee17ae345cb5f6b5e2c27f5033e8ce79060200160405180910390a15050565b60006001600160e01b03198216632483248360e11b1480610574575061057482611df9565b6001600160a01b0381163b611b8d5760405162461bcd60e51b815260206004820152602d60248201527f455243313936373a206e657720696d706c656d656e746174696f6e206973206e60448201526c1bdd08184818dbdb9d1c9858dd609a1b60648201526084016106a7565b600080516020612aae83398151915280546001600160a01b0319166001600160a01b0392909216919091179055565b611bc583611e49565b600082511180611bd25750805b1561074857610e1d8383611e89565b600054610100900460ff16611c085760405162461bcd60e51b81526004016106a79061286f565b6065611c148382612981565b5060666107488282612981565b600054610100900460ff16611c485760405162461bcd60e51b81526004016106a79061286f565b61092c33611637565b60006001600160a01b0384163b15611d4757604051630a85bd0160e11b81526001600160a01b0385169063150b7a0290611c95903390899088908890600401612a41565b6020604051808303816000875af1925050508015611cd0575060408051601f3d908101601f19168201909252611ccd91810190612a74565b60015b611d2d573d808015611cfe576040519150601f19603f3d011682016040523d82523d6000602084013e611d03565b606091505b508051600003611d255760405162461bcd60e51b81526004016106a7906128ba565b805181602001fd5b6001600160e01b031916630a85bd0160e11b1490506111d8565b506001949350505050565b6060611d5d82611094565b6000611d7460408051602081019091526000815290565b90506000815111611d945760405180602001604052806000815250611dbf565b80611d9e84611eae565b604051602001611daf92919061290c565b6040516020818303038152906040525b9392505050565b611dd08383611f41565b611ddd6000848484611c51565b6107485760405162461bcd60e51b81526004016106a7906128ba565b60006001600160e01b031982166380ac58cd60e01b1480611e2a57506001600160e01b03198216635b5e139f60e01b145b8061057457506301ffc9a760e01b6001600160e01b0319831614610574565b611e5281611b20565b6040516001600160a01b038216907fbc7cd75a20ee27fd9adebab32041f755214dbc6bffa90cc0225b39da2e5c2d3b90600090a250565b6060611dbf8383604051806060016040528060278152602001612ace602791396120cc565b60606000611ebb83612144565b600101905060008167ffffffffffffffff811115611edb57611edb61242a565b6040519080825280601f01601f191660200182016040528015611f05576020820181803683370190505b5090508181016020015b600019016f181899199a1a9b1b9c1cb0b131b232b360811b600a86061a8153600a8504945084611f0f57509392505050565b6001600160a01b038216611f975760405162461bcd60e51b815260206004820181905260248201527f4552433732313a206d696e7420746f20746865207a65726f206164647265737360448201526064016106a7565b6000818152606760205260409020546001600160a01b031615611ffc5760405162461bcd60e51b815260206004820152601c60248201527f4552433732313a20746f6b656e20616c7265616479206d696e7465640000000060448201526064016106a7565b6000818152606760205260409020546001600160a01b0316156120615760405162461bcd60e51b815260206004820152601c60248201527f4552433732313a20746f6b656e20616c7265616479206d696e7465640000000060448201526064016106a7565b6001600160a01b038216600081815260686020908152604080832080546001019055848352606790915280822080546001600160a01b0319168417905551839291907fddf252ad1be2c89b69c2b068fc378daa952ba7f163c4a11628f55a4df523b3ef908290a45050565b6060600080856001600160a01b0316856040516120e99190612a91565b600060405180830381855af49150503d8060008114612124576040519150601f19603f3d011682016040523d82523d6000602084013e612129565b606091505b509150915061213a8683838761221c565b9695505050505050565b60008072184f03e93ff9f4daa797ed6e38ed64bf6a1f0160401b83106121835772184f03e93ff9f4daa797ed6e38ed64bf6a1f0160401b830492506040015b6d04ee2d6d415b85acef810000000083106121af576d04ee2d6d415b85acef8100000000830492506020015b662386f26fc1000083106121cd57662386f26fc10000830492506010015b6305f5e10083106121e5576305f5e100830492506008015b61271083106121f957612710830492506004015b6064831061220b576064830492506002015b600a83106105745760010192915050565b6060831561228b578251600003612284576001600160a01b0385163b6122845760405162461bcd60e51b815260206004820152601d60248201527f416464726573733a2063616c6c20746f206e6f6e2d636f6e747261637400000060448201526064016106a7565b50816111d8565b6111d883838151156122a05781518083602001fd5b8060405162461bcd60e51b81526004016106a7919061233d565b6001600160e01b03198116811461090657600080fd5b6000602082840312156122e257600080fd5b8135611dbf816122ba565b60005b838110156123085781810151838201526020016122f0565b50506000910152565b600081518084526123298160208601602086016122ed565b601f01601f19169290920160200192915050565b602081526000611dbf6020830184612311565b60006020828403121561236257600080fd5b5035919050565b6001600160a01b038116811461090657600080fd5b6000806040838503121561239157600080fd5b823561239c81612369565b946020939093013593505050565b6000806000606084860312156123bf57600080fd5b83356123ca81612369565b925060208401356123da81612369565b929592945050506040919091013590565b600080604083850312156123fe57600080fd5b50508035926020909101359150565b60006020828403121561241f57600080fd5b8135611dbf81612369565b634e487b7160e01b600052604160045260246000fd5b600082601f83011261245157600080fd5b813567ffffffffffffffff8082111561246c5761246c61242a565b604051601f8301601f19908116603f011681019082821181831017156124945761249461242a565b816040528381528660208588010111156124ad57600080fd5b836020870160208301376000602085830101528094505050505092915050565b600080604083850312156124e057600080fd5b82356124eb81612369565b9150602083013567ffffffffffffffff81111561250757600080fd5b61251385828601612440565b9150509250929050565b600080600080600060a0868803121561253557600080fd5b853567ffffffffffffffff8082111561254d57600080fd5b61255989838a01612440565b9650602088013591508082111561256f57600080fd5b5061257c88828901612440565b94505060408601359250606086013561259481612369565b915060808601356125a481612369565b809150509295509295909350565b600080604083850312156125c557600080fd5b82356125d081612369565b9150602083013580151581146125e557600080fd5b809150509250929050565b6000806000806080858703121561260657600080fd5b843561261181612369565b9350602085013561262181612369565b925060408501359150606085013567ffffffffffffffff81111561264457600080fd5b61265087828801612440565b91505092959194509250565b6000806040838503121561266f57600080fd5b823561267a81612369565b915060208301356125e581612369565b600181811c9082168061269e57607f821691505b6020821081036126be57634e487b7160e01b600052602260045260246000fd5b50919050565b6020808252602d908201527f4552433732313a2063616c6c6572206973206e6f7420746f6b656e206f776e6560408201526c1c881bdc88185c1c1c9bdd9959609a1b606082015260800190565b634e487b7160e01b600052601160045260246000fd5b808202811582820484141761057457610574612711565b60008261275b57634e487b7160e01b600052601260045260246000fd5b500490565b6020808252602c908201527f46756e6374696f6e206d7573742062652063616c6c6564207468726f7567682060408201526b19195b1959d85d1958d85b1b60a21b606082015260800190565b6020808252602c908201527f46756e6374696f6e206d7573742062652063616c6c6564207468726f7567682060408201526b6163746976652070726f787960a01b606082015260800190565b60006001820161280a5761280a612711565b5060010190565b60208082526025908201527f4552433732313a207472616e736665722066726f6d20696e636f72726563742060408201526437bbb732b960d91b606082015260800190565b60006020828403121561286857600080fd5b5051919050565b6020808252602b908201527f496e697469616c697a61626c653a20636f6e7472616374206973206e6f74206960408201526a6e697469616c697a696e6760a81b606082015260800190565b60208082526032908201527f4552433732313a207472616e7366657220746f206e6f6e20455243373231526560408201527131b2b4bb32b91034b6b83632b6b2b73a32b960711b606082015260800190565b6000835161291e8184602088016122ed565b8351908301906129328183602088016122ed565b01949350505050565b601f82111561074857600081815260208120601f850160051c810160208610156129625750805b601f850160051c820191505b81811015610dc95782815560010161296e565b815167ffffffffffffffff81111561299b5761299b61242a565b6129af816129a9845461268a565b8461293b565b602080601f8311600181146129e457600084156129cc5750858301515b600019600386901b1c1916600185901b178555610dc9565b600085815260208120601f198616915b82811015612a13578886015182559484019460019091019084016129f4565b5085821015612a315787850151600019600388901b60f8161c191681555b5050505050600190811b01905550565b6001600160a01b038581168252841660208201526040810183905260806060820181905260009061213a90830184612311565b600060208284031215612a8657600080fd5b8151611dbf816122ba565b60008251612aa38184602087016122ed565b919091019291505056fe360894a13ba1a3210667c828492db98dca3e2076cc3735a920a3ca505d382bbc416464726573733a206c6f772d6c6576656c2064656c65676174652063616c6c206661696c6564a264697066735822122038ac3d4fac212ddbcbd9f42772283fb4b8e70fad53d42c35cd16fa63543dc69464736f6c63430008140033",
  "devdoc": {
    "details": "NFT contract for Zoda Farcaster mini app on Base network",
    "events": {
      "AdminChanged(address,address)": {
        "details": "Emitted when the admin account has changed."
      },
      "Approval(address,address,uint256)": {
        "details": "Emitted when `owner` enables `approved` to manage the `tokenId` token."
      },
      "ApprovalForAll(address,address,bool)": {
        "details": "Emitted when `owner` enables or disables (`approved`) `operator` to manage all of its assets."
      },
      "BatchMetadataUpdate(uint256,uint256)": {
        "details": "This event emits when the metadata of a range of tokens is changed. So that the third-party platforms such as NFT market could timely update the images and related attributes of the NFTs."
      },
      "BeaconUpgraded(address)": {
        "details": "Emitted when the beacon is changed."
      },
      "Initialized(uint8)": {
        "details": "Triggered when the contract has been initialized or reinitialized."
      },
      "MetadataUpdate(uint256)": {
        "details": "This event emits when the metadata of a token is changed. So that the third-party platforms such as NFT market could timely update the images and related attributes of the NFT."
      },
      "Transfer(address,address,uint256)": {
        "details": "Emitted when `tokenId` token is transferred from `from` to `to`."
      },
      "Upgraded(address)": {
        "details": "Emitted when the implementation is upgraded."
      }
    },
    "kind": "dev",
    "methods": {
      "approve(address,uint256)": {
        "details": "See {IERC721-approve}."
      },
      "balanceOf(address)": {
        "details": "See {IERC721-balanceOf}."
      },
      "constructor": {
        "custom:oz-upgrades-unsafe-allow": "constructor"
      },
      "getApproved(uint256)": {
        "details": "See {IERC721-getApproved}."
      },
      "isApprovedForAll(address,address)": {
        "details": "See {IERC721-isApprovedForAll}."
      },
      "name()": {
        "details": "See {IERC721Metadata-name}."
      },
      "owner()": {
        "details": "Returns the address of the current owner."
      },
      "ownerOf(uint256)": {
        "details": "See {IERC721-ownerOf}."
      },
      "proxiableUUID()": {
        "details": "Implementation of the ERC1822 {proxiableUUID} function. This returns the storage slot used by the implementation. It is used to validate the implementation's compatibility when performing an upgrade. IMPORTANT: A proxy pointing at a proxiable contract should not be considered proxiable itself, because this risks bricking a proxy that upgrades to it, by delegating to itself until out of gas. Thus it is critical that this function revert if invoked through a proxy. This is guaranteed by the `notDelegated` modifier."
      },
      "renounceOwnership()": {
        "details": "Leaves the contract without owner. It will not be possible to call `onlyOwner` functions. Can only be called by the current owner. NOTE: Renouncing ownership will leave the contract without an owner, thereby disabling any functionality that is only available to the owner."
      },
      "royaltyInfo(uint256,uint256)": {
        "details": "Returns how much royalty is owed and to whom, based on a sale price that may be denominated in any unit of exchange. The royalty amount is denominated and should be paid in that same unit of exchange."
      },
      "safeTransferFrom(address,address,uint256)": {
        "details": "See {IERC721-safeTransferFrom}."
      },
      "safeTransferFrom(address,address,uint256,bytes)": {
        "details": "See {IERC721-safeTransferFrom}."
      },
      "setApprovalForAll(address,bool)": {
        "details": "See {IERC721-setApprovalForAll}."
      },
      "symbol()": {
        "details": "See {IERC721Metadata-symbol}."
      },
      "transferFrom(address,address,uint256)": {
        "details": "See {IERC721-transferFrom}."
      },
      "transferOwnership(address)": {
        "details": "Transfers ownership of the contract to a new account (`newOwner`). Can only be called by the current owner."
      },
      "upgradeTo(address)": {
        "custom:oz-upgrades-unsafe-allow-reachable": "delegatecall",
        "details": "Upgrade the implementation of the proxy to `newImplementation`. Calls {_authorizeUpgrade}. Emits an {Upgraded} event."
      },
      "upgradeToAndCall(address,bytes)": {
        "custom:oz-upgrades-unsafe-allow-reachable": "delegatecall",
        "details": "Upgrade the implementation of the proxy to `newImplementation`, and subsequently execute the function call encoded in `data`. Calls {_authorizeUpgrade}. Emits an {Upgraded} event."
      }
    },
    "title": "ZodaNFT",
    "version": 1
  },
  "userdoc": {
    "kind": "user",
    "methods": {},
    "version": 1
  },
  "storageLayout": {
    "storage": [
      {
        "astId": 550,
        "contract": "contracts/ZodaNFT.sol:ZodaNFT",
        "label": "_initialized",
        "offset": 0,
        "slot": "0",
        "type": "t_uint8"
      },
      {
        "astId": 553,
        "contract": "contracts/ZodaNFT.sol:ZodaNFT",
        "label": "_initializing",
        "offset": 1,
        "slot": "0",
        "type": "t_bool"
      },
      {
        "astId": 2726,
        "contract": "contracts/ZodaNFT.sol:ZodaNFT",
        "label": "__gap",
        "offset": 0,
        "slot": "1",
        "type": "t_array(t_uint256)50_storage"
      },
      {
        "astId": 3109,
        "contract": "contracts/ZodaNFT.sol:ZodaNFT",
        "label": "__gap",
        "offset": 0,
        "slot": "51",
        "type": "t_array(t_uint256)50_storage"
      },
      {
        "astId": 877,
        "contract": "contracts/ZodaNFT.sol:ZodaNFT",
        "label": "_name",
        "offset": 0,
        "slot": "101",
        "type": "t_string_storage"
      },
      {
        "astId": 879,
        "contract": "contracts/ZodaNFT.sol:ZodaNFT",
        "label": "_symbol",
        "offset": 0,
        "slot": "102",
        "type": "t_string_storage"
      },
      {
        "astId": 883,
        "contract": "contracts/ZodaNFT.sol:ZodaNFT",
        "label": "_owners",
        "offset": 0,
        "slot": "103",
        "type": "t_mapping(t_uint256,t_address)"
      },
      {
        "astId": 887,
        "contract": "contracts/ZodaNFT.sol:ZodaNFT",
        "label": "_balances",
        "offset": 0,
        "slot": "104",
        "type": "t_mapping(t_address,t_uint256)"
      },
      {
        "astId": 891,
        "contract": "contracts/ZodaNFT.sol:ZodaNFT",
        "label": "_tokenApprovals",
        "offset": 0,
        "slot": "105",
        "type": "t_mapping(t_uint256,t_address)"
      },
      {
        "astId": 897,
        "contract": "contracts/ZodaNFT.sol:ZodaNFT",
        "label": "_operatorApprovals",
        "offset": 0,
        "slot": "106",
        "type": "t_mapping(t_address,t_mapping(t_address,t_bool))"
      },
      {
        "astId": 1799,
        "contract": "contracts/ZodaNFT.sol:ZodaNFT",
        "label": "__gap",
        "offset": 0,
        "slot": "107",
        "type": "t_array(t_uint256)44_storage"
      },
      {
        "astId": 1965,
        "contract": "contracts/ZodaNFT.sol:ZodaNFT",
        "label": "_tokenURIs",
        "offset": 0,
        "slot": "151",
        "type": "t_mapping(t_uint256,t_string_storage)"
      },
      {
        "astId": 2109,
        "contract": "contracts/ZodaNFT.sol:ZodaNFT",
        "label": "__gap",
        "offset": 0,
        "slot": "152",
        "type": "t_array(t_uint256)49_storage"
      },
      {
        "astId": 2169,
        "contract": "contracts/ZodaNFT.sol:ZodaNFT",
        "label": "_defaultRoyaltyInfo",
        "offset": 0,
        "slot": "201",
        "type": "t_struct(RoyaltyInfo)2166_storage"
      },
      {
        "astId": 2174,
        "contract": "contracts/ZodaNFT.sol:ZodaNFT",
        "label": "_tokenRoyaltyInfo",
        "offset": 0,
        "slot": "202",
        "type": "t_mapping(t_uint256,t_struct(RoyaltyInfo)2166_storage)"
      },
      {
        "astId": 2354,
        "contract": "contracts/ZodaNFT.sol:ZodaNFT",
        "label": "__gap",
        "offset": 0,
        "slot": "203",
        "type": "t_array(t_uint256)48_storage"
      },
      {
        "astId": 10,
        "contract": "contracts/ZodaNFT.sol:ZodaNFT",
        "label": "_owner",
        "offset": 0,
        "slot": "251",
        "type": "t_address"
      },
      {
        "astId": 130,
        "contract": "contracts/ZodaNFT.sol:ZodaNFT",
        "label": "__gap",
        "offset": 0,
        "slot": "252",
        "type": "t_array(t_uint256)49_storage"
      },
      {
        "astId": 532,
        "contract": "contracts/ZodaNFT.sol:ZodaNFT",
        "label": "__gap",
        "offset": 0,
        "slot": "301",
        "type": "t_array(t_uint256)50_storage"
      },
      {
        "astId": 847,
        "contract": "contracts/ZodaNFT.sol:ZodaNFT",
        "label": "__gap",
        "offset": 0,
        "slot": "351",
        "type": "t_array(t_uint256)50_storage"
      },
      {
        "astId": 5320,
        "contract": "contracts/ZodaNFT.sol:ZodaNFT",
        "label": "_nextTokenId",
        "offset": 0,
        "slot": "401",
        "type": "t_uint256"
      },
      {
        "astId": 5322,
        "contract": "contracts/ZodaNFT.sol:ZodaNFT",
        "label": "mintFee",
        "offset": 0,
        "slot": "402",
        "type": "t_uint256"
      },
      {
        "astId": 5324,
        "contract": "contracts/ZodaNFT.sol:ZodaNFT",
        "label": "treasuryAddress",
        "offset": 0,
        "slot": "403",
        "type": "t_address_payable"
      }
    ],
    "types": {
      "t_address": {
        "encoding": "inplace",
        "label": "address",
        "numberOfBytes": "20"
      },
      "t_address_payable": {
        "encoding": "inplace",
        "label": "address payable",
        "numberOfBytes": "20"
      },
      "t_array(t_uint256)44_storage": {
        "base": "t_uint256",
        "encoding": "inplace",
        "label": "uint256[44]",
        "numberOfBytes": "1408"
      },
      "t_array(t_uint256)48_storage": {
        "base": "t_uint256",
        "encoding": "inplace",
        "label": "uint256[48]",
        "numberOfBytes": "1536"
      },
      "t_array(t_uint256)49_storage": {
        "base": "t_uint256",
        "encoding": "inplace",
        "label": "uint256[49]",
        "numberOfBytes": "1568"
      },
      "t_array(t_uint256)50_storage": {
        "base": "t_uint256",
        "encoding": "inplace",
        "label": "uint256[50]",
        "numberOfBytes": "1600"
      },
      "t_bool": {
        "encoding": "inplace",
        "label": "bool",
        "numberOfBytes": "1"
      },
      "t_mapping(t_address,t_bool)": {
        "encoding": "mapping",
        "key": "t_address",
        "label": "mapping(address => bool)",
        "numberOfBytes": "32",
        "value": "t_bool"
      },
      "t_mapping(t_address,t_mapping(t_address,t_bool))": {
        "encoding": "mapping",
        "key": "t_address",
        "label": "mapping(address => mapping(address => bool))",
        "numberOfBytes": "32",
        "value": "t_mapping(t_address,t_bool)"
      },
      "t_mapping(t_address,t_uint256)": {
        "encoding": "mapping",
        "key": "t_address",
        "label": "mapping(address => uint256)",
        "numberOfBytes": "32",
        "value": "t_uint256"
      },
      "t_mapping(t_uint256,t_address)": {
        "encoding": "mapping",
        "key": "t_uint256",
        "label": "mapping(uint256 => address)",
        "numberOfBytes": "32",
        "value": "t_address"
      },
      "t_mapping(t_uint256,t_string_storage)": {
        "encoding": "mapping",
        "key": "t_uint256",
        "label": "mapping(uint256 => string)",
        "numberOfBytes": "32",
        "value": "t_string_storage"
      },
      "t_mapping(t_uint256,t_struct(RoyaltyInfo)2166_storage)": {
        "encoding": "mapping",
        "key": "t_uint256",
        "label": "mapping(uint256 => struct ERC2981Upgradeable.RoyaltyInfo)",
        "numberOfBytes": "32",
        "value": "t_struct(RoyaltyInfo)2166_storage"
      },
      "t_string_storage": {
        "encoding": "bytes",
        "label": "string",
        "numberOfBytes": "32"
      },
      "t_struct(RoyaltyInfo)2166_storage": {
        "encoding": "inplace",
        "label": "struct ERC2981Upgradeable.RoyaltyInfo",
        "members": [
          {
            "astId": 2163,
            "contract": "contracts/ZodaNFT.sol:ZodaNFT",
            "label": "receiver",
            "offset": 0,
            "slot": "0",
            "type": "t_address"
          },
          {
            "astId": 2165,
            "contract": "contracts/ZodaNFT.sol:ZodaNFT",
            "label": "royaltyFraction",
            "offset": 20,
            "slot": "0",
            "type": "t_uint96"
          }
        ],
        "numberOfBytes": "32"
      },
      "t_uint256": {
        "encoding": "inplace",
        "label": "uint256",
        "numberOfBytes": "32"
      },
      "t_uint8": {
        "encoding": "inplace",
        "label": "uint8",
        "numberOfBytes": "1"
      },
      "t_uint96": {
        "encoding": "inplace",
        "label": "uint96",
        "numberOfBytes": "12"
      }
    }
  }
}